S01400002E2F44656275672F6C61625F352E733139AA
S315200000000248854600F0D8FDFEE7C04600C0012024
S3152000001080B500AF104B104A12681204120C1A60F9
S315200000200D4B0D4A1268AA21C9050A431A600A4ACD
S31520000030094B9B889BB2FF210B409BB29380064BBA
S31520000040064ADA60044B044AD2681100044A0A437D
S31520000050DA60C046BD4680BD000C0240FFFF0000AE
S315200000600000A0AA80B582B000AF78607B68042B20
S3152000007019D87B689A000E4BD3181B689F460D4BE8
S3152000008010225A750FE00B4B20225A750BE0094BB4
S3152000009040225A7507E0074B80225A7503E0054B2C
S315200000A000225A75C046C046BD4602B080BDC04635
S315200000B02C160020000C024080B582B000AF124AF8
S315200000C0FB1D527C1A70FB1D1B780822134001D0A1
S315200000D0042315E0FB1D1B780422134001D00323C3
S315200000E00EE0FB1D1B780222134001D0022307E0FD
S315200000F0FB1D1B780122134001D0012300E00023C1
S315200001001800BD4602B080BD000C024080B586B006
S3152000011000AF3A00174B1000190010231A0000F008
S31520000120ABFD01237B6119E07B691800FFF79AFF7D
S31520000130FFF7C2FF03003B613B69002B0BD0002079
S31520000140FFF790FF7B69013B9A003B69013BD3187F
S315200001503A00D35C09E07B6901337B617B69042B20
S31520000160E2DD0020FFF77EFFFF231800BD4606B024
S3152000017080BDC0464016002080B500AF0C4B002243
S315200001801A600B4B29225A60094B00229A60084BB1
S3152000019005221A60C046064B1A6880235B0213406C
S315200001A0F9D0034B00221A60C046BD4680BDC0462A
S315200001B010E000E080B582B000AF786007E0FFF77E
S315200001C0DBFFFFF7D9FFFFF7D7FFFFF7D5FF7B68E8
S315200001D05A1E7A60002BF2D1C046BD4602B080BDC1
S315200001E080B582B000AF786002E00120FFF7E2FF21
S315200001F07B685A1E7A60002BF7D1C046BD4602B0F6
S3152000020080BDC04680B500AFFFF7B6FFFFF7B4FF4D
S31520000210C046BD4680BDC04680B500AF074B084AE4
S315200002201A60064B00229A80044B054A9A60034BBB
S31520000230044ADA60C046BD4680BDC0460010024072
S31520000240555555550000555580B582B000AF020072
S31520000250FB1D1A70094A094B1B7DDBB2D9B2FB1D67
S315200002601B78181C042398430300DBB20B43DBB234
S31520000270DBB21375C046BD4602B080BD00100240F9
S3152000028080B582B000AF0200FB1D1A700849084BEA
S315200002901B7DDBB2FA1D1278D243D2B21340DBB2F9
S315200002A004229343DBB20B75C046BD4602B080BD27
S315200002B00010024080B582B000AF0200FB1D1A700C
S315200002C0FB1D1B78082B0CD002DC002B05D01AE076
S315200002D0102B0DD0182B12D015E01820FFF7D0FFC9
S315200002E011E00820FFF7B0FF1020FFF7C9FF0AE052
S315200002F01020FFF7A9FF0820FFF7C2FF03E0182010
S31520000300FFF7A2FFC046C046BD4602B080BDC0462C
S3152000031080B582B000AF4020FFF7B2FF154B164ADA
S315200003201A600120FFF7ACFF0220FFF78DFFFFF7D1
S3152000033069FF4020FFF788FFFFF764FF0D4B5B7CCA
S31520000340DAB2FB1D7F218A431A70FB1D1B78002B16
S3152000035005D04020FFF794FFFFF754FFE9E7C0469A
S31520000360044B064A1A604020FFF76EFFC046BD4682
S3152000037002B080BD00100240555500005555555518
S3152000038080B584B000AF0200FB1D1A701D4B1E4ABB
S315200003901A60FB1D1B781800FFF78CFF4020FFF723
S315200003A06FFF0320FFF750FFFFF72CFF4020FFF7DA
S315200003B04BFFFFF727FF134A0F23FB18527C1A70B7
S315200003C04020FFF75DFF0F4B104A1A60FB1D1B787C
S315200003D00822134004D00820FFF76CFFFFF798FF90
S315200003E0FB1D1B781022134004D01020FFF762FF5C
S315200003F0FFF78EFF0F23FB181B781800BD4604B0AD
S3152000040080BDC04600100240555500005555555533
S3152000041080B582B000AF0200FB1D1A70FB1D1B7851
S315200004201800FFF7ADFFFB1D1B781800FFF7A8FF8C
S3152000043003001800BD4602B080BDC04680B582B01C
S3152000044000AF0200FB1D1A70BB1D0A1C1A701A4A47
S31520000450FB1D1B785375BB1D1B781800FFF72AFF61
S31520000460FFF7D0FE4020FFF7EFFEFFF7CBFE402040
S31520000470FFF706FFBB1D1B780822134004D0082077
S31520000480FFF718FFFFF744FFBB1D1B781022134010
S3152000049004D01020FFF70EFFFFF73AFF064B00228D
S315200004A05A754020FFF7D0FE0020FFF703FFC04615
S315200004B0BD4602B080BDC0460010024080B582B065
S315200004C000AF0200FB1D1A70BB1D0A1C1A704020CB
S315200004D0FFF7D6FE0320FFF7D3FEBB1D1A78FB1DC0
S315200004E01B7811001800FFF7A9FFC046BD4602B0D1
S315200004F080BDC04680B582B000AF0200FB1D1A70D9
S31520000500BB1D0A1C1A704020FFF7BAFE0120FFF718
S315200005109BFE0220FFF7B4FEBB1D1A78FB1D1B783D
S3152000052011001800FFF78AFFC046BD4602B080BD05
S3152000053080B500AF4020FFF787FE0A20FFF73AFE7E
S315200005407820FFF79DFE1E20FFF74AFE2020FFF7AA
S315200005507BFE18213E20FFF7B1FF18213F20FFF731
S31520000560ADFF1821C020FFF7A9FF18214020FFF773
S31520000570A5FF1821B820FFF7A1FF0020FFF79AFE5C
S31520000580C046BD4680BDC04680B582B000AFBB1D0B
S3152000059000221A7023E0BB1D1B78482252421343C7
S315200005A0DBB218211800FFF789FF18214020FFF73A
S315200005B085FFFB1D00221A7008E018210020FFF796
S315200005C099FFFB1D1A78FB1D01321A70FB1D1B7843
S315200005D03F2BF2D9BB1D1A78BB1D01321A70BB1DE9
S315200005E01B78072BD7D9C046BD4602B080BDC04672
S315200005F080B586B000AFF860B9607A607B68002B62
S3152000060041D0FB687F2B40DCFB68002B3DDBBB68C1
S315200006103F2B3ADCBB68002B37DBBB681D4A1340F7
S3152000062004D5013B08225242134301331A00012309
S3152000063093401A001323FB181A7000237B61FB6872
S315200006403F2B05DDFB68403BFB6080239B007B61E5
S31520000650BB68002B00DA0733DB109A01FB68D3183E
S315200006607A69D3187B610C4B1A687B69D2180A4BBE
S3152000067019687B69CB1819781323FB181B780B4351
S31520000680DBB2137002E0C04600E0C046BD4606B0AD
S3152000069080BDC046070000809814002080B500AFBA
S315200006A0074B00221A60064BA7225A60044B0022F1
S315200006B09A60034B07221A60C046BD4680BDC046DD
S315200006C010E000E080B500AF084B00221A60084B0E
S315200006D01B685A1E064B1A60054B1B68002B01DD52
S315200006E0FFF7DCFFC046BD4680BDC04610E000E0F7
S315200006F08C0C002080B582B000AF78607A68064BFB
S315200007001A607B68002B02D0FFF7C8FF00E0C046C6
S31520000710BD4602B080BDC0468C0C002080B500AF1F
S31520000720074B1B889BB21A002023134001D10023BC
S3152000073003E0034B9B889BB2DBB21800BD4680BD0D
S315200007400010014080B584B000AF0023FB600B236E
S31520000750FB1801221A700A23FB1800221A7079E06E
S315200007600A23FB181B78002B01D1082200E0102257
S31520000770FB1D1A700923FB1800221A705EE009235C
S31520000780FB181B78482252421343DAB2FB1D1B7812
S3152000079019001000FFF792FEFB1D1B781900402060
S315200007A0FFF78CFE0823FB1800221A703AE02E4B26
S315200007B01A68FB68D3181A782C4B1968FB68CB1873
S315200007C01B789A4220D00B23FB181B78002B0BD0CA
S315200007D00823FB181B7840221343DAB2FB1D1B7833
S315200007E019001000FFF76AFE1F4B1A68FB68D31822
S315200007F01A78FB1D1B7819001000FFF77BFE0B23D0
S31520000800FB1800221A7003E00B23FB1801221A7032
S315200008100823FB181A780823FB1801321A70FB6884
S315200008200133FB600823FB181B783F2BBFD9092314
S31520000830FB181A780923FB1801321A700923FB18B2
S315200008401B78072B9BD90A23FB181A780A23FB1837
S3152000085001321A700A23FB181B78012B80D9C04657
S31520000860BD4604B080BDC0469814002094140020D4
S3152000087080B584B000AF0200FB1D1A700023FB6018
S3152000088009E0094B1A68FB68D318FA1D12781A700A
S31520000890FB680133FB60FB68044A9342F1DDC046E6
S315200008A0BD4604B080BDC04698140020FF0300005A
S315200008B080B582B000AF00237B600EE00B4B1A6838
S315200008C07B68D2180A4B19687B68CB1800211970EF
S315200008D01B7813707B6801337B607B68054A9342E3
S315200008E0ECDDC046BD4602B080BDC046981400204F
S315200008F094140020FF03000080B582B000AFFFF7FC
S3152000090021FF074B1B687B60064B1A68044B1A6055
S31520000910044B7A681A60C046BD4602B080BDC04608
S31520000920941400209814002080B584B000AF78601D
S315200009300023FB602EE07B68DB68002B27DD7B68CD
S315200009401B69002B23DD7B68DB687F2B1FDC7B6824
S315200009501B693F2B1BDC7B681A68FB6804335B0032
S31520000960D31804331B781A007B68DB68D0187B68A1
S315200009701A68FB6804335B00D31805331B781A000A
S315200009807B681B69D31801221900FFF731FEFB682B
S315200009900133FB607B681B681A68FB689A42CADCD5
S315200009A0C046BD4604B080BD80B584B000AF786037
S315200009B00023FB601EE07B681A68FB6804335B003B
S315200009C0D31804331B781A007B68DB68D0187B6841
S315200009D01A68FB6804335B00D31805331B781A00AA
S315200009E07B681B69D31800221900FFF701FEFB68FC
S315200009F00133FB607B681B681A68FB689A42DADC65
S31520000A00C046BD4604B080BD80B582B000AF7860D8
S31520000A107B681800FFF7C8FF7B68DB68002B04DCC7
S31520000A207B685B685A427B685A607B68DB68802BF0
S31520000A3004DD7B685B685A427B685A607B681B6969
S31520000A40002B04DC7B689B685A427B689A607B6833
S31520000A501B69402B04DD7B689B685A427B689A6041
S31520000A607B681A697B689B68D2187B681A617B68E9
S31520000A70DA687B685B68D2187B68DA607B68180066
S31520000A80FFF752FFC046BD4602B080BD80B584B098
S31520000A9000AFF860B9607A60FB68BA685A60FB6894
S31520000AA07A689A60C046BD4604B080BD80B582B0E3
S31520000AB000AF00237B600DE00B4B7A689200D35881
S31520000AC0DB69094A796889008A58100098477B684B
S31520000AD001337B607A68054B1B689A42ECD3C0468B
S31520000AE0BD4602B080BDC046241600209C140020BE
S31520000AF080B582B000AF00237B600DE00B4B7A6897
S31520000B009200D3585B69094A796889008A5810008F
S31520000B1098477B6801337B607A68054B1B689A424D
S31520000B20ECD3C046BD4602B080BDC0462416002088
S31520000B309C140020B0B500AF1C4CFFF7E7FA030069
S31520000B402370FFF7E3FA03001A00194B1A70184BAB
S31520000B501B78342B0FD002DC322B1CD022E0362B14
S31520000B6002D0382B0FD01DE0124B1B6A11480022F1
S31520000B700221984716E00F4B1B6A022251420D486C
S31520000B80002298470EE00B4B1B6A0222524209486C
S31520000B900021984706E0074B1B6A064802220021DF
S31520000BA09847C046C046BD46B0BDC046140C02405C
S31520000BB0901000200016002090B585B000AF786018
S31520000BC039602C4BFB60FFF727FBFFF721FAFFF775
S31520000BD0AFFCFFF7D9FCFFF76BFE0B23FB180022B7
S31520000BE01A703DE00020FFF743FE0A23FC18FFF7AA
S31520000BF08DFA030023700A23FB181B78042B0FD0D1
S31520000C0002DC022B14D022E0062B02D0082B17D0B0
S31520000C101DE0FB681B6AF86800220221984716E04F
S31520000C20FB681B6A02225142F868002298470EE0B0
S31520000C30FB681B6A02225242F8680021984706E0A8
S31520000C40FB681B6AF868022200219847C046FFF716
S31520000C502DFFFFF74DFFFFF74FFE2820FFF7C0FAC5
S31520000C600B23FB181B78002BBCD000231800BD4695
S31520000C7005B090BD00160020002310B59A4203D07F
S31520000C80CC5CC4540133F9E710BD0000000000001D
S31520000C90000000000000000000000000000000002E
S31520000CA0000000000000000000000000000000001E
S31520000CB0000000000000000000000000000000000E
S31520000CC000000000000000000000000000000000FE
S315200014900000000094100020900C002001000000A5
S315200014A00C000000040000000400000000010002FF
S315200014B001000101010201030200020102020203EE
S315200014C003010302000000000000000000000000ED
S315200014D000000000000000000000000000000000E6
S315200014E000000000000000000000000000000000D6
S315200014F000000000000000000000000000000000C6
S3152000150000000000000000000000000000000000B5
S3152000151000000000000000000000000000000000A5
S315200015200000000000000000000000004000000055
S315200015300800000008000000000003000400070067
S315200015400001020103010401050107010102030252
S315200015500402060201030203030304030503060330
S315200015600104060402050305040505050605000613
S3152000157001060306040606060706000704070707F2
S315200015800000000000000000000000000000000035
S315200015900000000000000000000000000000000025
S315200015A00000000000000000000000000000000015
S315200015B00000000000000000A01400200000000031
S315200015C000000000010000000100000029090020A1
S315200015D0A9090020090A00208D0A00202C150020C8
S315200015E000000000000000000100000032000000A2
S315200015F029090020A9090020090A00208D0A0020B7
S31520001600A0140020010000000100000001000000DD
S315200016100100000029090020A9090020090A00204C
S315200016208D0A002000160020DC1500209E000020D8
S315200016307E000020860000208E00002096000020DC
S315200016400102030A0405060B0708090C0E000F0DFC
S70520000000DA
