S01300002E2F44656275672F6C6162342E7331390B
S315200000000248854600F0E6FCFEE7C04600C0012017
S3152000001080B500AF0C4B00221A600B4B29225A6088
S31520000020094B00229A60084B05221A60C046064BEF
S315200000301A6880235B021340F9D0034B00221A6012
S31520000040C046BD4680BDC04610E000E080B582B007
S3152000005000AF786007E0FFF7DBFFFFF7D9FFFFF778
S31520000060D7FFFFF7D5FF7B685A1E7A60002BF2D1A7
S31520000070C046BD4602B080BD80B582B000AF786074
S3152000008002E00120FFF7E2FF7B685A1E7A60002B10
S31520000090F7D1C046BD4602B080BDC04680B500AF90
S315200000A0FFF7B6FFFFF7B4FFC046BD4680BDC0468A
S315200000B080B500AF074B084A1A60064B00229A808B
S315200000C0044B054A9A60034B044ADA60C046BD4693
S315200000D080BDC04600100240555555550000555567
S315200000E080B582B000AF0200FB1D1A70094A094B89
S315200000F01B7DDBB2D9B2FB1D1B78181C0423984349
S315200001000300DBB20B43DBB2DBB21375C046BD4640
S3152000011002B080BD0010024080B582B000AF020060
S31520000120FB1D1A700849084B1B7DDBB2FA1D12789D
S31520000130D243D2B21340DBB204229343DBB20B7517
S31520000140C046BD4602B080BD0010024080B582B0D8
S3152000015000AF0200FB1D1A70FB1D1B78082B0CD06C
S3152000016002DC002B05D01AE0102B0DD0182B12D054
S3152000017015E01820FFF7D0FF11E00820FFF7B0FFA9
S315200001801020FFF7C9FF0AE01020FFF7A9FF08207B
S31520000190FFF7C2FF03E01820FFF7A2FFC046C046C4
S315200001A0BD4602B080BDC04680B582B000AF4020BB
S315200001B0FFF7B2FF154B164A1A600120FFF7ACFF76
S315200001C00220FFF78DFFFFF769FF4020FFF788FF2A
S315200001D0FFF764FF0D4B5B7CDAB2FB1D7F218A4360
S315200001E01A70FB1D1B78002B05D04020FFF794FFCB
S315200001F0FFF754FFE9E7C046044B064A1A60402041
S31520000200FFF76EFFC046BD4602B080BD001002401B
S31520000210555500005555555580B584B000AF0200A0
S31520000220FB1D1A701D4B1E4A1A60FB1D1B781800F9
S31520000230FFF78CFF4020FFF76FFF0320FFF750FFEB
S31520000240FFF72CFF4020FFF74BFFFFF727FF134A4E
S315200002500F23FB18527C1A704020FFF75DFF0F4BCF
S31520000260104A1A60FB1D1B780822134004D0082070
S31520000270FFF76CFFFFF798FFFB1D1B78102213403A
S3152000028004D01020FFF762FFFFF78EFF0F23FB1825
S315200002901B781800BD4604B080BDC0460010024041
S315200002A0555500005555555580B582B000AF020012
S315200002B0FB1D1A70FB1D1B781800FFF7ADFFFB1DF9
S315200002C01B781800FFF7A8FF03001800BD4602B0F0
S315200002D080BDC04680B582B000AF0200FB1D1A70FB
S315200002E0BB1D0A1C1A701A4AFB1D1B785375BB1DB1
S315200002F01B781800FFF72AFFFFF7D0FE4020FFF7F4
S31520000300EFFEFFF7CBFE4020FFF706FFBB1D1B7855
S315200003100822134004D00820FFF718FFFFF744FFF8
S31520000320BB1D1B781022134004D01020FFF70EFFB0
S31520000330FFF73AFF064B00225A754020FFF7D0FE02
S315200003400020FFF703FFC046BD4602B080BDC04671
S315200003500010024080B582B000AF0200FB1D1A706B
S31520000360BB1D0A1C1A704020FFF7D6FE0320FFF79C
S31520000370D3FEBB1D1A78FB1D1B7811001800FFF752
S31520000380A9FFC046BD4602B080BDC04680B582B03A
S3152000039000AF0200FB1D1A70BB1D0A1C1A704020FC
S315200003A0FFF7BAFE0120FFF79BFE0220FFF7B4FEFF
S315200003B0BB1D1A78FB1D1B7811001800FFF78AFF5A
S315200003C0C046BD4602B080BD80B500AF4020FFF7D5
S315200003D087FE0A20FFF73AFE7820FFF79DFE1E20B3
S315200003E0FFF74AFE2020FFF77BFE18213E20FFF76D
S315200003F0B1FF18213F20FFF7ADFF1821C020FFF7DE
S31520000400A9FF18214020FFF7A5FF1821B820FFF7E4
S31520000410A1FF0020FFF79AFEC046BD4680BDC0461C
S3152000042080B582B000AFBB1D00221A7023E0BB1D31
S315200004301B78482252421343DBB218211800FFF7DB
S3152000044089FF18214020FFF785FFFB1D00221A7027
S3152000045008E018210020FFF799FFFB1D1A78FB1DE5
S3152000046001321A70FB1D1B783F2BF2D9BB1D1A785F
S31520000470BB1D01321A70BB1D1B78072BD7D9C0466E
S31520000480BD4602B080BDC04690B589B000AFF860C9
S31520000490B9607A60FB68802B00DDB7E0BB68402B33
S315200004A000DDB3E0BB68013B002B00DA0733DB102D
S315200004B0BB61BB68013B574A134004D5013B082268
S315200004C0524213430133072B2CD89A00524BD31890
S315200004D01B689F461F23FB1801221A7022E01F2348
S315200004E0FB1802221A701DE01F23FB1804221A7023
S315200004F018E01F23FB1808221A7013E01F23FB188D
S3152000050010221A700EE01F23FB1820221A7009E011
S315200005101F23FB1840221A7004E01F23FB18802299
S315200005201A70C0467B68002B06D11F23FB181F229A
S31520000530BA181278D2431A70FB68402B07DD1E23A7
S31520000540FB1810221A70FB68413BFB6006E01E2355
S31520000550FB1808221A70FB68013BFB60FB68DBB2C4
S315200005601A1C40231343DBB2DAB21E23FB181B7876
S3152000057019001000FFF7EEFEBB69DBB21A1C4823F8
S315200005805B421343DBB2DAB21E23FB181B78190039
S315200005901000FFF7DFFE1723FC181E23FB181B781D
S315200005A01800FFF781FE03002370FB68DBB21A1CDC
S315200005B040231343DBB2DAB21E23FB181B78190043
S315200005C01000FFF7C7FE7B68002B0AD01F23FB18FD
S315200005D01F22B9181722BA18097812780A431A70F6
S315200005E009E01F23FB181F22BA1817217918127841
S315200005F009780A401A701E23FB181A781F23FB1845
S315200006001B7811001800FFF7C1FE00E0C046BD466A
S3152000061009B090BD070000807C0B002080B500AF9C
S31520000620074B00221A60064BA7225A60044B002271
S315200006309A60034B07221A60C046BD4680BDC0465D
S3152000064010E000E080B500AF084B00221A60084B8E
S315200006501B685A1E064B1A60054B1B68002B01DDD2
S31520000660FFF7DCFFC046BD4680BDC04610E000E077
S31520000670180A002080B582B000AF78607A68064BF1
S315200006801A607B68002B02D0FFF7C8FF00E0C04647
S31520000690BD4602B080BDC046180A002080B584B091
S315200006A000AFF860B9607A60FB68BA685A60FB6888
S315200006B07A689A60C046BD4604B080BD80B584B0D5
S315200006C000AF78600023FB602EE07B68DB68002BA0
S315200006D027DD7B681B69002B23DD7B68DB687F2B8E
S315200006E01FDC7B681B693F2B1BDC7B681A68FB6859
S315200006F004335B00D31804331B781A007B68DB684D
S31520000700D0187B681A68FB6804335B00D31805335E
S315200007101B781A007B681B69D31801221900FFF782
S31520000720B3FEFB680133FB607B681B681A68FB68B5
S315200007309A42CADCC046BD4604B080BD80B584B0AE
S3152000074000AF78600023FB601EE07B681A68FB68B8
S3152000075004335B00D31804331B781A007B68DB68EC
S31520000760D0187B681A68FB6804335B00D3180533FE
S315200007701B781A007B681B69D31800221900FFF723
S3152000078083FEFB680133FB607B681B681A68FB6885
S315200007909A42DADCC046BD4604B080BD80B582B040
S315200007A000AF78607B681800FFF7C8FF7B68DB68BE
S315200007B0002B04DC7B685B685A427B685A607B6846
S315200007C0DB68802B04DD7B685B685A427B685A6055
S315200007D07B681B69002B04DC7B689B685A427B681C
S315200007E09A607B681B69402B04DD7B689B685A42B4
S315200007F07B689A607B681A697B689B68D2187B68DD
S315200008001A617B68DA687B685B68D2187B68DA6075
S315200008107B681800FFF752FFC046BD4602B080BD78
S3152000082080B500AF104B104A12681204120C1A60E1
S315200008300D4B0D4A1268AA21C9050A431A600A4AB5
S31520000840094B9B889BB2FF210B409BB29380064BA2
S31520000850064ADA60044B044AD2681100044A0A4365
S31520000860DA60C046BD4680BD000C0240FFFF000096
S315200008700000A0AA80B582B000AF78607B68042B08
S3152000088019D87B689A000E4BD3181B689F460D4BD0
S3152000089010225A750FE00B4B20225A750BE0094B9C
S315200008A040225A7507E0074B80225A7503E0054B14
S315200008B000225A75C046C046BD4602B080BDC0461D
S315200008C09C0B0020000C024080B582B000AF124A7B
S315200008D0FB1D527C1A70FB1D1B780822134001D089
S315200008E0042315E0FB1D1B780422134001D00323AB
S315200008F00EE0FB1D1B780222134001D0022307E0E5
S31520000900FB1D1B780122134001D0012300E00023A8
S315200009101800BD4602B080BD000C024080B586B0EE
S3152000092000AF3A00174B1000190010231A0000F0F0
S3152000093069F801237B6119E07B691800FFF79AFFAC
S31520000940FFF7C2FF03003B613B69002B0BD0002061
S31520000950FFF790FF7B69013B9A003B69013BD31867
S315200009603A00D35C09E07B6901337B617B69042B08
S31520000970E2DD0020FFF77EFF01231800BD4606B00A
S3152000098080BDC046B00B002080B586B000AF020007
S31520000990FB1D1A70FB1D1B780F2B03D90B4B002256
S315200009A01A750FE00823FA18094B100019001023B6
S315200009B01A0000F027F80549FB1D1B780822BA18F3
S315200009C0D35C0B75C046BD4606B080BD0010024004
S315200009D0C00B002080B500AFFFF76AFB074B002253
S315200009E05A75074B1800FFF745FE044BFF225A7530
S315200009F0034B1800FFF73EFEF0E7C046001002400A
S31520000A0010270000002310B59A4203D0CC5CC454B2
S31520000A100133F9E710BD0000000000000C000000C3
S31520000A200400000004000000000100020100010192
S31520000A300102010302000201020202030301030272
S31520000A400000000000000000000000000000000080
S31520000A500000000000000000000000000000000070
S31520000A600000000000000000000000000000000060
S31520000A700000000000000000000000000000000050
S31520000A800000000000000000000000000000000040
S31520000A900000000000000000000000000000000030
S31520000AA000000000000000004000000008000000D8
S31520000AB008000000000003000400070000010201F6
S31520000AC003010401050107010102030204020602D3
S31520000AD001030203030304030503060301040604BA
S31520000AE0020503050405050506050006010603069D
S31520000AF0040606060706000704070707000000008D
S31520000B0000000000000000000000000000000000BF
S31520000B1000000000000000000000000000000000AF
S31520000B20000000000000000000000000000000009F
S31520000B30000000001C0A0020000000000000000049
S31520000B400100000001000000BD0600203D07002036
S31520000B509D0700209D060020A80A00200000000016
S31520000B60000000000100000001000000BD0600207A
S31520000B703D0700209D0700209D060020D40400206C
S31520000B80DE040020E8040020F2040020FC040020FB
S31520000B9006050020100500201A050020AE080020BA
S31520000BA08E080020960800209E080020A608002017
S31520000BB00102030A0405060B0708090C0E000F0D97
S31520000BC03F065B4F666D7D077F67777C585E797140
S70520000000DA
